:020000040000FA
:060000000A128A11EE2F26
:100C82008316031308148814080083120313080838
:100C920001394B2E080083120313080C0139512E1F
:100CA2000800700C83120313031C0813031808179F
:100CB2000800700C83120313031C88120318881691
:100CC2000800F000700C83120313031C881303182E
:100CD200881708007008203E8400831300088312DE
:100CE2000313860008008316031789018316031372
:100CF20086018312031386010800831603138812E8
:100D02000813881383120313881208138813080028
:100D120083120313080D080D0139F200F301720862
:100D2200F0007308F100952E08003F3406345B345E
:100D32004F3466346D347D3407347F346F34773406
:100D42007C3439345E34793471347E088A007F0809
:100D520082000A128A11A6260A128A118000840AC7
:100D620004087D0603190034FF0A0319FE0AAA2E9D
:100D7200C82E0130F0020030031CF103F102C7302B
:100D8200F200C32EF20BC22EC62EC72EC82E70083A
:100D92007104031DCD2ECE2EBA2ECF2E0800F601E1
:100DA200F701F801F901AE2FAE2F0130F800003043
:100DB200F900D02F0A128A117E260A128A110A120B
:100DC2008A1141260A128A110A128A1174260A12FB
:100DD2008A110230F8000030F900D02F0A128A116D
:100DE2004C260A128A11013A031DF82EF92ED02F31
:100DF2000A128A1189260A128A1170087104031DC7
:100E0200032F042FD02F0330F8000030F900D02F29
:100E1200D02F01300A128A1162260A128A11013079
:100E2200F0000030F1000A128A1152260A128A11C9
:100E32000030F000F1000A128A115A260A128A11B1
:100E42000430F8000030F900D02FB830F4000B3035
:100E5200F5000630F8000030F900D02F0130F00024
:100E62000030F1000A128A11B9260A128A11FF30E3
:100E7200F4070318F50AFF30F5077508803AFF00FA
:100E820080307F02031D472F0130740203184A2F5E
:100E92004B2F502F0730F8000030F900502F0A1264
:100EA2008A1146260A128A11013A031D592F5A2F16
:100EB200D02F0930F8000030F900D02FD02F0130A8
:100EC200F6070318F70A0030F7070830F800003079
:100ED200F900D02F01300A128A1162260A128A11F1
:100EE2000030F000F1000A128A1152260A128A1109
:100EF2000130F0000030F1000A128A115A260A125B
:100F02008A110A128A1146260A128A11013A031D0F
:100F12008B2F8C2FD02F0930F8000030F900D02F02
:100F2200D02F00300A128A1162260A128A1100306A
:100F3200F000F1000A128A1152260A128A110030B8
:100F4200F000F1000A128A115A260A128A1102309E
:100F5200F8000030F900D02FD02F7908003A031999
:100F6200B32FD02F7808003A0319D62E013A03196D
:100F7200DB2E033A0319EF2E013A03190A2F073A1F
:100F82000319262F023A03192F2F013A0319602F52
:100F92000F3A03196B2F013A0319922FD02F7708BA
:100FA200F1007608F0000A128A116B260A128A11E1
:100FB2007708803AFF0080307F02031DE22F0A305B
:100FC2007602031CE52FE62FAE2FF601F701AE2FB6
:100FD200AE2FAE2F0A128A11002883133030FD0083
:100FE2000630FE009630FF00203084000A128A117B
:0E0FF200AA260A128A1183010A128A11D02E31
:04400E00D4F0FFFFEC
:00000001FF
